{
  "_format": "hh-sol-artifact-1",
  "contractName": "Sleep2EarnToken",
  "sourceName": "contracts/Lock.sol",
  "abi": [
    {
      "inputs": [
        {
          "internalType": "address",
          "name": "_feeCollector",
          "type": "address"
        }
      ],
      "stateMutability": "nonpayable",
      "type": "constructor"
    },
    {
      "inputs": [
        {
          "internalType": "address",
          "name": "spender",
          "type": "address"
        },
        {
          "internalType": "uint256",
          "name": "allowance",
          "type": "uint256"
        },
        {
          "internalType": "uint256",
          "name": "needed",
          "type": "uint256"
        }
      ],
      "name": "ERC20InsufficientAllowance",
      "type": "error"
    },
    {
      "inputs": [
        {
          "internalType": "address",
          "name": "sender",
          "type": "address"
        },
        {
          "internalType": "uint256",
          "name": "balance",
          "type": "uint256"
        },
        {
          "internalType": "uint256",
          "name": "needed",
          "type": "uint256"
        }
      ],
      "name": "ERC20InsufficientBalance",
      "type": "error"
    },
    {
      "inputs": [
        {
          "internalType": "address",
          "name": "approver",
          "type": "address"
        }
      ],
      "name": "ERC20InvalidApprover",
      "type": "error"
    },
    {
      "inputs": [
        {
          "internalType": "address",
          "name": "receiver",
          "type": "address"
        }
      ],
      "name": "ERC20InvalidReceiver",
      "type": "error"
    },
    {
      "inputs": [
        {
          "internalType": "address",
          "name": "sender",
          "type": "address"
        }
      ],
      "name": "ERC20InvalidSender",
      "type": "error"
    },
    {
      "inputs": [
        {
          "internalType": "address",
          "name": "spender",
          "type": "address"
        }
      ],
      "name": "ERC20InvalidSpender",
      "type": "error"
    },
    {
      "inputs": [
        {
          "internalType": "address",
          "name": "owner",
          "type": "address"
        }
      ],
      "name": "OwnableInvalidOwner",
      "type": "error"
    },
    {
      "inputs": [
        {
          "internalType": "address",
          "name": "account",
          "type": "address"
        }
      ],
      "name": "OwnableUnauthorizedAccount",
      "type": "error"
    },
    {
      "anonymous": false,
      "inputs": [
        {
          "indexed": true,
          "internalType": "address",
          "name": "owner",
          "type": "address"
        },
        {
          "indexed": true,
          "internalType": "address",
          "name": "spender",
          "type": "address"
        },
        {
          "indexed": false,
          "internalType": "uint256",
          "name": "value",
          "type": "uint256"
        }
      ],
      "name": "Approval",
      "type": "event"
    },
    {
      "anonymous": false,
      "inputs": [
        {
          "indexed": true,
          "internalType": "address",
          "name": "previousOwner",
          "type": "address"
        },
        {
          "indexed": true,
          "internalType": "address",
          "name": "newOwner",
          "type": "address"
        }
      ],
      "name": "OwnershipTransferred",
      "type": "event"
    },
    {
      "anonymous": false,
      "inputs": [
        {
          "indexed": true,
          "internalType": "address",
          "name": "user",
          "type": "address"
        },
        {
          "indexed": false,
          "internalType": "uint256",
          "name": "amount",
          "type": "uint256"
        }
      ],
      "name": "RewardTransferred",
      "type": "event"
    },
    {
      "anonymous": false,
      "inputs": [
        {
          "indexed": true,
          "internalType": "address",
          "name": "user",
          "type": "address"
        },
        {
          "indexed": false,
          "internalType": "uint256",
          "name": "reward",
          "type": "uint256"
        },
        {
          "indexed": false,
          "internalType": "uint256",
          "name": "amount",
          "type": "uint256"
        }
      ],
      "name": "StakeClaimed",
      "type": "event"
    },
    {
      "anonymous": false,
      "inputs": [
        {
          "indexed": true,
          "internalType": "address",
          "name": "user",
          "type": "address"
        },
        {
          "indexed": false,
          "internalType": "uint256",
          "name": "amountBurned",
          "type": "uint256"
        },
        {
          "indexed": false,
          "internalType": "uint256",
          "name": "feePaid",
          "type": "uint256"
        }
      ],
      "name": "TokenRedeemed",
      "type": "event"
    },
    {
      "anonymous": false,
      "inputs": [
        {
          "indexed": true,
          "internalType": "address",
          "name": "user",
          "type": "address"
        },
        {
          "indexed": false,
          "internalType": "uint256",
          "name": "amount",
          "type": "uint256"
        },
        {
          "indexed": false,
          "internalType": "uint256",
          "name": "duration",
          "type": "uint256"
        }
      ],
      "name": "TokensStaked",
      "type": "event"
    },
    {
      "anonymous": false,
      "inputs": [
        {
          "indexed": true,
          "internalType": "address",
          "name": "from",
          "type": "address"
        },
        {
          "indexed": true,
          "internalType": "address",
          "name": "to",
          "type": "address"
        },
        {
          "indexed": false,
          "internalType": "uint256",
          "name": "value",
          "type": "uint256"
        }
      ],
      "name": "Transfer",
      "type": "event"
    },
    {
      "inputs": [],
      "name": "INITIAL_SUPPLY",
      "outputs": [
        {
          "internalType": "uint256",
          "name": "",
          "type": "uint256"
        }
      ],
      "stateMutability": "view",
      "type": "function"
    },
    {
      "inputs": [
        {
          "internalType": "address",
          "name": "owner",
          "type": "address"
        },
        {
          "internalType": "address",
          "name": "spender",
          "type": "address"
        }
      ],
      "name": "allowance",
      "outputs": [
        {
          "internalType": "uint256",
          "name": "",
          "type": "uint256"
        }
      ],
      "stateMutability": "view",
      "type": "function"
    },
    {
      "inputs": [
        {
          "internalType": "address",
          "name": "spender",
          "type": "address"
        },
        {
          "internalType": "uint256",
          "name": "value",
          "type": "uint256"
        }
      ],
      "name": "approve",
      "outputs": [
        {
          "internalType": "bool",
          "name": "",
          "type": "bool"
        }
      ],
      "stateMutability": "nonpayable",
      "type": "function"
    },
    {
      "inputs": [
        {
          "internalType": "address",
          "name": "account",
          "type": "address"
        }
      ],
      "name": "balanceOf",
      "outputs": [
        {
          "internalType": "uint256",
          "name": "",
          "type": "uint256"
        }
      ],
      "stateMutability": "view",
      "type": "function"
    },
    {
      "inputs": [],
      "name": "baseRedemptionFee",
      "outputs": [
        {
          "internalType": "uint256",
          "name": "",
          "type": "uint256"
        }
      ],
      "stateMutability": "view",
      "type": "function"
    },
    {
      "inputs": [],
      "name": "claimStake",
      "outputs": [],
      "stateMutability": "nonpayable",
      "type": "function"
    },
    {
      "inputs": [],
      "name": "decimals",
      "outputs": [
        {
          "internalType": "uint8",
          "name": "",
          "type": "uint8"
        }
      ],
      "stateMutability": "view",
      "type": "function"
    },
    {
      "inputs": [],
      "name": "feeCollector",
      "outputs": [
        {
          "internalType": "address",
          "name": "",
          "type": "address"
        }
      ],
      "stateMutability": "view",
      "type": "function"
    },
    {
      "inputs": [],
      "name": "minRedemptionFee",
      "outputs": [
        {
          "internalType": "uint256",
          "name": "",
          "type": "uint256"
        }
      ],
      "stateMutability": "view",
      "type": "function"
    },
    {
      "inputs": [
        {
          "internalType": "uint256",
          "name": "amount",
          "type": "uint256"
        }
      ],
      "name": "mint",
      "outputs": [],
      "stateMutability": "nonpayable",
      "type": "function"
    },
    {
      "inputs": [],
      "name": "name",
      "outputs": [
        {
          "internalType": "string",
          "name": "",
          "type": "string"
        }
      ],
      "stateMutability": "view",
      "type": "function"
    },
    {
      "inputs": [],
      "name": "owner",
      "outputs": [
        {
          "internalType": "address",
          "name": "",
          "type": "address"
        }
      ],
      "stateMutability": "view",
      "type": "function"
    },
    {
      "inputs": [
        {
          "internalType": "uint256",
          "name": "amount",
          "type": "uint256"
        }
      ],
      "name": "redeemTokens",
      "outputs": [],
      "stateMutability": "payable",
      "type": "function"
    },
    {
      "inputs": [],
      "name": "renounceOwnership",
      "outputs": [],
      "stateMutability": "nonpayable",
      "type": "function"
    },
    {
      "inputs": [
        {
          "internalType": "address",
          "name": "user",
          "type": "address"
        },
        {
          "internalType": "uint256",
          "name": "amount",
          "type": "uint256"
        }
      ],
      "name": "rewardUser",
      "outputs": [],
      "stateMutability": "nonpayable",
      "type": "function"
    },
    {
      "inputs": [
        {
          "internalType": "uint256",
          "name": "newFee",
          "type": "uint256"
        }
      ],
      "name": "setBaseRedemptionFee",
      "outputs": [],
      "stateMutability": "nonpayable",
      "type": "function"
    },
    {
      "inputs": [
        {
          "internalType": "address",
          "name": "newCollector",
          "type": "address"
        }
      ],
      "name": "setFeeCollector",
      "outputs": [],
      "stateMutability": "nonpayable",
      "type": "function"
    },
    {
      "inputs": [
        {
          "internalType": "uint256",
          "name": "newMinFee",
          "type": "uint256"
        }
      ],
      "name": "setMinRedemptionFee",
      "outputs": [],
      "stateMutability": "nonpayable",
      "type": "function"
    },
    {
      "inputs": [
        {
          "internalType": "uint256",
          "name": "amount",
          "type": "uint256"
        },
        {
          "internalType": "uint256",
          "name": "duration",
          "type": "uint256"
        }
      ],
      "name": "stakeTokens",
      "outputs": [],
      "stateMutability": "nonpayable",
      "type": "function"
    },
    {
      "inputs": [
        {
          "internalType": "address",
          "name": "",
          "type": "address"
        }
      ],
      "name": "stakes",
      "outputs": [
        {
          "internalType": "uint256",
          "name": "amount",
          "type": "uint256"
        },
        {
          "internalType": "uint256",
          "name": "startTime",
          "type": "uint256"
        },
        {
          "internalType": "uint256",
          "name": "duration",
          "type": "uint256"
        },
        {
          "internalType": "bool",
          "name": "claimed",
          "type": "bool"
        }
      ],
      "stateMutability": "view",
      "type": "function"
    },
    {
      "inputs": [],
      "name": "symbol",
      "outputs": [
        {
          "internalType": "string",
          "name": "",
          "type": "string"
        }
      ],
      "stateMutability": "view",
      "type": "function"
    },
    {
      "inputs": [],
      "name": "totalSupply",
      "outputs": [
        {
          "internalType": "uint256",
          "name": "",
          "type": "uint256"
        }
      ],
      "stateMutability": "view",
      "type": "function"
    },
    {
      "inputs": [
        {
          "internalType": "address",
          "name": "to",
          "type": "address"
        },
        {
          "internalType": "uint256",
          "name": "value",
          "type": "uint256"
        }
      ],
      "name": "transfer",
      "outputs": [
        {
          "internalType": "bool",
          "name": "",
          "type": "bool"
        }
      ],
      "stateMutability": "nonpayable",
      "type": "function"
    },
    {
      "inputs": [
        {
          "internalType": "address",
          "name": "from",
          "type": "address"
        },
        {
          "internalType": "address",
          "name": "to",
          "type": "address"
        },
        {
          "internalType": "uint256",
          "name": "value",
          "type": "uint256"
        }
      ],
      "name": "transferFrom",
      "outputs": [
        {
          "internalType": "bool",
          "name": "",
          "type": "bool"
        }
      ],
      "stateMutability": "nonpayable",
      "type": "function"
    },
    {
      "inputs": [
        {
          "internalType": "address",
          "name": "newOwner",
          "type": "address"
        }
      ],
      "name": "transferOwnership",
      "outputs": [],
      "stateMutability": "nonpayable",
      "type": "function"
    }
  ],
  "bytecode": "0x6080604052600a600755662386f26fc1000060085534801561002057600080fd5b506040516130f23803806130f2833981810160405281019061004291906105f9565b336040518060400160405280601081526020017f536c656570324561726e20546f6b656e000000000000000000000000000000008152506040518060400160405280600581526020017f534c45455000000000000000000000000000000000000000000000000000000081525081600390816100be9190610876565b5080600490816100ce9190610876565b505050600073ffffffffffffffffffffffffffffffffffffffff168173ffffffffffffffffffffffffffffffffffffffff16036101435760006040517f1e4fbdf700000000000000000000000000000000000000000000000000000000815260040161013a9190610957565b60405180910390fd5b6101528161022360201b60201c565b50600073ffffffffffffffffffffffffffffffffffffffff168173ffffffffffffffffffffffffffffffffffffffff16036101c2576040517f08c379a00000000000000000000000000000000000000000000000000000000081526004016101b9906109cf565b60405180910390fd5b80600660006101000a81548173ffffffffffffffffffffffffffffffffffffffff021916908373ffffffffffffffffffffffffffffffffffffffff16021790555061021d3369d3c21bcecceda10000006102e960201b60201c565b50610ab3565b6000600560009054906101000a900473ffffffffffffffffffffffffffffffffffffffff16905081600560006101000a81548173ffffffffffffffffffffffffffffffffffffffff021916908373ffffffffffffffffffffffffffffffffffffffff1602179055508173ffffffffffffffffffffffffffffffffffffffff168173ffffffffffffffffffffffffffffffffffffffff167f8be0079c531659141344cd1fd0a4f28419497f9722a3daafe3b4186f6b6457e060405160405180910390a35050565b600073ffffffffffffffffffffffffffffffffffffffff168273ffffffffffffffffffffffffffffffffffffffff160361035b5760006040517fec442f050000000000000000000000000000000000000000000000000000000081526004016103529190610957565b60405180910390fd5b61036d6000838361037160201b60201c565b5050565b600073ffffffffffffffffffffffffffffffffffffffff168373ffffffffffffffffffffffffffffffffffffffff16036103c35780600260008282546103b79190610a1e565b92505081905550610496565b60008060008573ffffffffffffffffffffffffffffffffffffffff1673ffffffffffffffffffffffffffffffffffffffff1681526020019081526020016000205490508181101561044f578381836040517fe450d38c00000000000000000000000000000000000000000000000000000000815260040161044693929190610a61565b60405180910390fd5b8181036000808673ffffffffffffffffffffffffffffffffffffffff1673ffffffffffffffffffffffffffffffffffffffff16815260200190815260200160002081905550505b600073ffffffffffffffffffffffffffffffffffffffff168273ffffffffffffffffffffffffffffffffffffffff16036104df578060026000828254039250508190555061052c565b806000808473ffffffffffffffffffffffffffffffffffffffff1673ffffffffffffffffffffffffffffffffffffffff168152602001908152602001600020600082825401925050819055505b8173ffffffffffffffffffffffffffffffffffffffff168373ffffffffffffffffffffffffffffffffffffffff167fddf252ad1be2c89b69c2b068fc378daa952ba7f163c4a11628f55a4df523b3ef836040516105899190610a98565b60405180910390a3505050565b600080fd5b600073ffffffffffffffffffffffffffffffffffffffff82169050919050565b60006105c68261059b565b9050919050565b6105d6816105bb565b81146105e157600080fd5b50565b6000815190506105f3816105cd565b92915050565b60006020828403121561060f5761060e610596565b5b600061061d848285016105e4565b91505092915050565b600081519050919050565b7f4e487b7100000000000000000000000000000000000000000000000000000000600052604160045260246000fd5b7f4e487b7100000000000000000000000000000000000000000000000000000000600052602260045260246000fd5b600060028204905060018216806106a757607f821691505b6020821081036106ba576106b9610660565b5b50919050565b60008190508160005260206000209050919050565b60006020601f8301049050919050565b600082821b905092915050565b6000600883026107227fffffffffffffffffffffffffffffffffffffffffffffffffffffffffffffffff826106e5565b61072c86836106e5565b95508019841693508086168417925050509392505050565b6000819050919050565b6000819050919050565b600061077361076e61076984610744565b61074e565b610744565b9050919050565b6000819050919050565b61078d83610758565b6107a16107998261077a565b8484546106f2565b825550505050565b600090565b6107b66107a9565b6107c1818484610784565b505050565b5b818110156107e5576107da6000826107ae565b6001810190506107c7565b5050565b601f82111561082a576107fb816106c0565b610804846106d5565b81016020851015610813578190505b61082761081f856106d5565b8301826107c6565b50505b505050565b600082821c905092915050565b600061084d6000198460080261082f565b1980831691505092915050565b6000610866838361083c565b9150826002028217905092915050565b61087f82610626565b67ffffffffffffffff81111561089857610897610631565b5b6108a2825461068f565b6108ad8282856107e9565b600060209050601f8311600181146108e057600084156108ce578287015190505b6108d8858261085a565b865550610940565b601f1984166108ee866106c0565b60005b82811015610916578489015182556001820191506020850194506020810190506108f1565b86831015610933578489015161092f601f89168261083c565b8355505b6001600288020188555050505b505050505050565b610951816105bb565b82525050565b600060208201905061096c6000830184610948565b92915050565b600082825260208201905092915050565b7f496e76616c69642066656520636f6c6c6563746f720000000000000000000000600082015250565b60006109b9601583610972565b91506109c482610983565b602082019050919050565b600060208201905081810360008301526109e8816109ac565b9050919050565b7f4e487b7100000000000000000000000000000000000000000000000000000000600052601160045260246000fd5b6000610a2982610744565b9150610a3483610744565b9250828201905080821115610a4c57610a4b6109ef565b5b92915050565b610a5b81610744565b82525050565b6000606082019050610a766000830186610948565b610a836020830185610a52565b610a906040830184610a52565b949350505050565b6000602082019050610aad6000830184610a52565b92915050565b61263080610ac26000396000f3fe6080604052600436106101665760003560e01c806395d89b41116100d1578063a9059cbb1161008a578063e4e103dc11610064578063e4e103dc14610536578063eb3211731461055f578063f2fde38b14610576578063f355ea281461059f57610166565b8063a9059cbb14610491578063c415b95c146104ce578063dd62ed3e146104f957610166565b806395d89b41146103a257806396caeb85146103cd5780639bbc1a27146103f8578063a0712d6814610423578063a42dce801461044c578063a6e158f81461047557610166565b80632ff2e9dc116101235780632ff2e9dc146102a4578063313ce567146102cf5780633b7b6188146102fa57806370a0823114610323578063715018a6146103605780638da5cb5b1461037757610166565b806306fdde031461016b578063095ea7b31461019657806316934fc4146101d357806318160ddd146102135780632248aebc1461023e57806323b872dd14610267575b600080fd5b34801561017757600080fd5b506101806105c8565b60405161018d9190611af9565b60405180910390f35b3480156101a257600080fd5b506101bd60048036038101906101b89190611bb4565b61065a565b6040516101ca9190611c0f565b60405180910390f35b3480156101df57600080fd5b506101fa60048036038101906101f59190611c2a565b61067d565b60405161020a9493929190611c66565b60405180910390f35b34801561021f57600080fd5b506102286106ba565b6040516102359190611cab565b60405180910390f35b34801561024a57600080fd5b5061026560048036038101906102609190611cc6565b6106c4565b005b34801561027357600080fd5b5061028e60048036038101906102899190611cf3565b61071a565b60405161029b9190611c0f565b60405180910390f35b3480156102b057600080fd5b506102b9610749565b6040516102c69190611cab565b60405180910390f35b3480156102db57600080fd5b506102e4610757565b6040516102f19190611d62565b60405180910390f35b34801561030657600080fd5b50610321600480360381019061031c9190611d7d565b610760565b005b34801561032f57600080fd5b5061034a60048036038101906103459190611c2a565b6109d5565b6040516103579190611cab565b60405180910390f35b34801561036c57600080fd5b50610375610a1d565b005b34801561038357600080fd5b5061038c610a31565b6040516103999190611dcc565b60405180910390f35b3480156103ae57600080fd5b506103b7610a5b565b6040516103c49190611af9565b60405180910390f35b3480156103d957600080fd5b506103e2610aed565b6040516103ef9190611cab565b60405180910390f35b34801561040457600080fd5b5061040d610af3565b60405161041a9190611cab565b60405180910390f35b34801561042f57600080fd5b5061044a60048036038101906104459190611cc6565b610af9565b005b34801561045857600080fd5b50610473600480360381019061046e9190611c2a565b610b0e565b005b61048f600480360381019061048a9190611cc6565b610bc9565b005b34801561049d57600080fd5b506104b860048036038101906104b39190611bb4565b610d8f565b6040516104c59190611c0f565b60405180910390f35b3480156104da57600080fd5b506104e3610db2565b6040516104f09190611dcc565b60405180910390f35b34801561050557600080fd5b50610520600480360381019061051b9190611de7565b610dd8565b60405161052d9190611cab565b60405180910390f35b34801561054257600080fd5b5061055d60048036038101906105589190611bb4565b610e5f565b005b34801561056b57600080fd5b50610574610f7e565b005b34801561058257600080fd5b5061059d60048036038101906105989190611c2a565b6111e1565b005b3480156105ab57600080fd5b506105c660048036038101906105c19190611cc6565b611267565b005b6060600380546105d790611e56565b80601f016020809104026020016040519081016040528092919081815260200182805461060390611e56565b80156106505780601f1061062557610100808354040283529160200191610650565b820191906000526020600020905b81548152906001019060200180831161063357829003601f168201915b5050505050905090565b600080610665611279565b9050610672818585611281565b600191505092915050565b60096020528060005260406000206000915090508060000154908060010154908060020154908060030160009054906101000a900460ff16905084565b6000600254905090565b6106cc611293565b6064811115610710576040517f08c379a000000000000000000000000000000000000000000000000000000000815260040161070790611ed3565b60405180910390fd5b8060078190555050565b600080610725611279565b905061073285828561131a565b61073d8585856113af565b60019150509392505050565b69d3c21bcecceda100000081565b60006012905090565b600082116107a3576040517f08c379a000000000000000000000000000000000000000000000000000000000815260040161079a90611f3f565b60405180910390fd5b62278d008114806107b657506276a70081145b806107c3575062ed4e0081145b610802576040517f08c379a00000000000000000000000000000000000000000000000000000000081526004016107f990611fab565b60405180910390fd5b8161080c336109d5565b101561084d576040517f08c379a000000000000000000000000000000000000000000000000000000000815260040161084490612017565b60405180910390fd5b6000600960003373ffffffffffffffffffffffffffffffffffffffff1673ffffffffffffffffffffffffffffffffffffffff16815260200190815260200160002060000154146108d2576040517f08c379a00000000000000000000000000000000000000000000000000000000081526004016108c990612083565b60405180910390fd5b6108dd3330846113af565b604051806080016040528083815260200142815260200182815260200160001515815250600960003373ffffffffffffffffffffffffffffffffffffffff1673ffffffffffffffffffffffffffffffffffffffff16815260200190815260200160002060008201518160000155602082015181600101556040820151816002015560608201518160030160006101000a81548160ff0219169083151502179055509050503373ffffffffffffffffffffffffffffffffffffffff167fdd2a19c3bdd089cbe77c04f5655f83de0504d6140d12c8667646f55d0557c4dc83836040516109c99291906120a3565b60405180910390a25050565b60008060008373ffffffffffffffffffffffffffffffffffffffff1673ffffffffffffffffffffffffffffffffffffffff168152602001908152602001600020549050919050565b610a25611293565b610a2f60006114a3565b565b6000600560009054906101000a900473ffffffffffffffffffffffffffffffffffffffff16905090565b606060048054610a6a90611e56565b80601f0160208091040260200160405190810160405280929190818152602001828054610a9690611e56565b8015610ae35780601f10610ab857610100808354040283529160200191610ae3565b820191906000526020600020905b815481529060010190602001808311610ac657829003601f168201915b5050505050905090565b60075481565b60085481565b610b01611293565b610b0b3082611569565b50565b610b16611293565b600073ffffffffffffffffffffffffffffffffffffffff168173ffffffffffffffffffffffffffffffffffffffff1603610b85576040517f08c379a0000000000000000000000000000000000000000000000000000000008152600401610b7c90612118565b60405180910390fd5b80600660006101000a81548173ffffffffffffffffffffffffffffffffffffffff021916908373ffffffffffffffffffffffffffffffffffffffff16021790555050565b60008111610c0c576040517f08c379a0000000000000000000000000000000000000000000000000000000008152600401610c0390612184565b60405180910390fd5b80610c16336109d5565b1015610c57576040517f08c379a0000000000000000000000000000000000000000000000000000000008152600401610c4e906121f0565b60405180910390fd5b6000606460075483610c69919061223f565b610c7391906122b0565b9050600854811015610c855760085490505b80341015610cc8576040517f08c379a0000000000000000000000000000000000000000000000000000000008152600401610cbf90612353565b60405180910390fd5b600660009054906101000a900473ffffffffffffffffffffffffffffffffffffffff1673ffffffffffffffffffffffffffffffffffffffff166108fc829081150290604051600060405180830381858888f19350505050158015610d30573d6000803e3d6000fd5b50610d3b33836115eb565b3373ffffffffffffffffffffffffffffffffffffffff167fac100af3f918c30d71d2bfb00d975e36374d10738748c899376504e76c70bc738383604051610d839291906120a3565b60405180910390a25050565b600080610d9a611279565b9050610da78185856113af565b600191505092915050565b600660009054906101000a900473ffffffffffffffffffffffffffffffffffffffff1681565b6000600160008473ffffffffffffffffffffffffffffffffffffffff1673ffffffffffffffffffffffffffffffffffffffff16815260200190815260200160002060008373ffffffffffffffffffffffffffffffffffffffff1673ffffffffffffffffffffffffffffffffffffffff16815260200190815260200160002054905092915050565b610e67611293565b600073ffffffffffffffffffffffffffffffffffffffff168273ffffffffffffffffffffffffffffffffffffffff1603610ed6576040517f08c379a0000000000000000000000000000000000000000000000000000000008152600401610ecd90612118565b60405180910390fd5b80610ee0336109d5565b1015610f21576040517f08c379a0000000000000000000000000000000000000000000000000000000008152600401610f18906123bf565b60405180910390fd5b610f2c3383836113af565b8173ffffffffffffffffffffffffffffffffffffffff167f9c944f9bf53dd7797190e4b01a2e438a604c4d8f33a684d386a7e9376929614182604051610f729190611cab565b60405180910390a25050565b6000600960003373ffffffffffffffffffffffffffffffffffffffff1673ffffffffffffffffffffffffffffffffffffffff16815260200190815260200160002090506000816000015411611008576040517f08c379a0000000000000000000000000000000000000000000000000000000008152600401610fff9061242b565b60405180910390fd5b8060020154816001015461101c919061244b565b42101561105e576040517f08c379a0000000000000000000000000000000000000000000000000000000008152600401611055906124cb565b60405180910390fd5b8060030160009054906101000a900460ff16156110b0576040517f08c379a00000000000000000000000000000000000000000000000000000000081526004016110a790612537565b60405180910390fd5b600062278d008260020154036110c957606990506110f5565b6276a7008260020154036110e057607390506110f4565b62ed4e008260020154036110f357608790505b5b5b60006064828460000154611109919061223f565b61111391906122b0565b90508061111f306109d5565b1015611160576040517f08c379a0000000000000000000000000000000000000000000000000000000008152600401611157906125a3565b60405180910390fd5b61116b3033836113af565b60018360030160006101000a81548160ff0219169083151502179055503373ffffffffffffffffffffffffffffffffffffffff167fd8cc75b8a0ba011aba2385703af6a0e5593ceae53e9951a7358f657ddf3f8dac8285600001546040516111d49291906120a3565b60405180910390a2505050565b6111e9611293565b600073ffffffffffffffffffffffffffffffffffffffff168173ffffffffffffffffffffffffffffffffffffffff160361125b5760006040517f1e4fbdf70000000000000000000000000000000000000000000000000000000081526004016112529190611dcc565b60405180910390fd5b611264816114a3565b50565b61126f611293565b8060088190555050565b600033905090565b61128e838383600161166d565b505050565b61129b611279565b73ffffffffffffffffffffffffffffffffffffffff166112b9610a31565b73ffffffffffffffffffffffffffffffffffffffff1614611318576112dc611279565b6040517f118cdaa700000000000000000000000000000000000000000000000000000000815260040161130f9190611dcc565b60405180910390fd5b565b60006113268484610dd8565b90507fffffffffffffffffffffffffffffffffffffffffffffffffffffffffffffffff8110156113a95781811015611399578281836040517ffb8f41b2000000000000000000000000000000000000000000000000000000008152600401611390939291906125c3565b60405180910390fd5b6113a88484848403600061166d565b5b50505050565b600073ffffffffffffffffffffffffffffffffffffffff168373ffffffffffffffffffffffffffffffffffffffff16036114215760006040517f96c6fd1e0000000000000000000000000000000000000000000000000000000081526004016114189190611dcc565b60405180910390fd5b600073ffffffffffffffffffffffffffffffffffffffff168273ffffffffffffffffffffffffffffffffffffffff16036114935760006040517fec442f0500000000000000000000000000000000000000000000000000000000815260040161148a9190611dcc565b60405180910390fd5b61149e838383611844565b505050565b6000600560009054906101000a900473ffffffffffffffffffffffffffffffffffffffff16905081600560006101000a81548173ffffffffffffffffffffffffffffffffffffffff021916908373ffffffffffffffffffffffffffffffffffffffff1602179055508173ffffffffffffffffffffffffffffffffffffffff168173ffffffffffffffffffffffffffffffffffffffff167f8be0079c531659141344cd1fd0a4f28419497f9722a3daafe3b4186f6b6457e060405160405180910390a35050565b600073ffffffffffffffffffffffffffffffffffffffff168273ffffffffffffffffffffffffffffffffffffffff16036115db5760006040517fec442f050000000000000000000000000000000000000000000000000000000081526004016115d29190611dcc565b60405180910390fd5b6115e760008383611844565b5050565b600073ffffffffffffffffffffffffffffffffffffffff168273ffffffffffffffffffffffffffffffffffffffff160361165d5760006040517f96c6fd1e0000000000000000000000000000000000000000000000000000000081526004016116549190611dcc565b60405180910390fd5b61166982600083611844565b5050565b600073ffffffffffffffffffffffffffffffffffffffff168473ffffffffffffffffffffffffffffffffffffffff16036116df5760006040517fe602df050000000000000000000000000000000000000000000000000000000081526004016116d69190611dcc565b60405180910390fd5b600073ffffffffffffffffffffffffffffffffffffffff168373ffffffffffffffffffffffffffffffffffffffff16036117515760006040517f94280d620000000000000000000000000000000000000000000000000000000081526004016117489190611dcc565b60405180910390fd5b81600160008673ffffffffffffffffffffffffffffffffffffffff1673ffffffffffffffffffffffffffffffffffffffff16815260200190815260200160002060008573ffffffffffffffffffffffffffffffffffffffff1673ffffffffffffffffffffffffffffffffffffffff16815260200190815260200160002081905550801561183e578273ffffffffffffffffffffffffffffffffffffffff168473ffffffffffffffffffffffffffffffffffffffff167f8c5be1e5ebec7d5bd14f71427d1e84f3dd0314c0f7b2291e5b200ac8c7c3b925846040516118359190611cab565b60405180910390a35b50505050565b600073ffffffffffffffffffffffffffffffffffffffff168373ffffffffffffffffffffffffffffffffffffffff160361189657806002600082825461188a919061244b565b92505081905550611969565b60008060008573ffffffffffffffffffffffffffffffffffffffff1673ffffffffffffffffffffffffffffffffffffffff16815260200190815260200160002054905081811015611922578381836040517fe450d38c000000000000000000000000000000000000000000000000000000008152600401611919939291906125c3565b60405180910390fd5b8181036000808673ffffffffffffffffffffffffffffffffffffffff1673ffffffffffffffffffffffffffffffffffffffff16815260200190815260200160002081905550505b600073ffffffffffffffffffffffffffffffffffffffff168273ffffffffffffffffffffffffffffffffffffffff16036119b257806002600082825403925050819055506119ff565b806000808473ffffffffffffffffffffffffffffffffffffffff1673ffffffffffffffffffffffffffffffffffffffff168152602001908152602001600020600082825401925050819055505b8173ffffffffffffffffffffffffffffffffffffffff168373ffffffffffffffffffffffffffffffffffffffff167fddf252ad1be2c89b69c2b068fc378daa952ba7f163c4a11628f55a4df523b3ef83604051611a5c9190611cab565b60405180910390a3505050565b600081519050919050565b600082825260208201905092915050565b60005b83811015611aa3578082015181840152602081019050611a88565b60008484015250505050565b6000601f19601f8301169050919050565b6000611acb82611a69565b611ad58185611a74565b9350611ae5818560208601611a85565b611aee81611aaf565b840191505092915050565b60006020820190508181036000830152611b138184611ac0565b905092915050565b600080fd5b600073ffffffffffffffffffffffffffffffffffffffff82169050919050565b6000611b4b82611b20565b9050919050565b611b5b81611b40565b8114611b6657600080fd5b50565b600081359050611b7881611b52565b92915050565b6000819050919050565b611b9181611b7e565b8114611b9c57600080fd5b50565b600081359050611bae81611b88565b92915050565b60008060408385031215611bcb57611bca611b1b565b5b6000611bd985828601611b69565b9250506020611bea85828601611b9f565b9150509250929050565b60008115159050919050565b611c0981611bf4565b82525050565b6000602082019050611c246000830184611c00565b92915050565b600060208284031215611c4057611c3f611b1b565b5b6000611c4e84828501611b69565b91505092915050565b611c6081611b7e565b82525050565b6000608082019050611c7b6000830187611c57565b611c886020830186611c57565b611c956040830185611c57565b611ca26060830184611c00565b95945050505050565b6000602082019050611cc06000830184611c57565b92915050565b600060208284031215611cdc57611cdb611b1b565b5b6000611cea84828501611b9f565b91505092915050565b600080600060608486031215611d0c57611d0b611b1b565b5b6000611d1a86828701611b69565b9350506020611d2b86828701611b69565b9250506040611d3c86828701611b9f565b9150509250925092565b600060ff82169050919050565b611d5c81611d46565b82525050565b6000602082019050611d776000830184611d53565b92915050565b60008060408385031215611d9457611d93611b1b565b5b6000611da285828601611b9f565b9250506020611db385828601611b9f565b9150509250929050565b611dc681611b40565b82525050565b6000602082019050611de16000830184611dbd565b92915050565b60008060408385031215611dfe57611dfd611b1b565b5b6000611e0c85828601611b69565b9250506020611e1d85828601611b69565b9150509250929050565b7f4e487b7100000000000000000000000000000000000000000000000000000000600052602260045260246000fd5b60006002820490506001821680611e6e57607f821691505b602082108103611e8157611e80611e27565b5b50919050565b7f46656520746f6f20686967680000000000000000000000000000000000000000600082015250565b6000611ebd600c83611a74565b9150611ec882611e87565b602082019050919050565b60006020820190508181036000830152611eec81611eb0565b9050919050565b7f416d6f756e74206d7573742062652067726561746572207468616e207a65726f600082015250565b6000611f29602083611a74565b9150611f3482611ef3565b602082019050919050565b60006020820190508181036000830152611f5881611f1c565b9050919050565b7f496e76616c6964207374616b696e67206475726174696f6e0000000000000000600082015250565b6000611f95601883611a74565b9150611fa082611f5f565b602082019050919050565b60006020820190508181036000830152611fc481611f88565b9050919050565b7f496e73756666696369656e742062616c616e6365000000000000000000000000600082015250565b6000612001601483611a74565b915061200c82611fcb565b602082019050919050565b6000602082019050818103600083015261203081611ff4565b9050919050565b7f416c7265616479207374616b696e670000000000000000000000000000000000600082015250565b600061206d600f83611a74565b915061207882612037565b602082019050919050565b6000602082019050818103600083015261209c81612060565b9050919050565b60006040820190506120b86000830185611c57565b6120c56020830184611c57565b9392505050565b7f496e76616c696420616464726573730000000000000000000000000000000000600082015250565b6000612102600f83611a74565b915061210d826120cc565b602082019050919050565b60006020820190508181036000830152612131816120f5565b9050919050565b7f496e76616c696420726564656d7074696f6e20616d6f756e7400000000000000600082015250565b600061216e601983611a74565b915061217982612138565b602082019050919050565b6000602082019050818103600083015261219d81612161565b9050919050565b7f496e73756666696369656e7420746f6b656e2062616c616e6365000000000000600082015250565b60006121da601a83611a74565b91506121e5826121a4565b602082019050919050565b60006020820190508181036000830152612209816121cd565b9050919050565b7f4e487b7100000000000000000000000000000000000000000000000000000000600052601160045260246000fd5b600061224a82611b7e565b915061225583611b7e565b925082820261226381611b7e565b9150828204841483151761227a57612279612210565b5b5092915050565b7f4e487b7100000000000000000000000000000000000000000000000000000000600052601260045260246000fd5b60006122bb82611b7e565b91506122c683611b7e565b9250826122d6576122d5612281565b5b828204905092915050565b7f496e73756666696369656e74206e617469766520746f6b656e20666f7220666560008201527f6500000000000000000000000000000000000000000000000000000000000000602082015250565b600061233d602183611a74565b9150612348826122e1565b604082019050919050565b6000602082019050818103600083015261236c81612330565b9050919050565b7f4e6f7420656e6f75676820746f6b656e73000000000000000000000000000000600082015250565b60006123a9601183611a74565b91506123b482612373565b602082019050919050565b600060208201905081810360008301526123d88161239c565b9050919050565b7f4e6f20616374697665207374616b650000000000000000000000000000000000600082015250565b6000612415600f83611a74565b9150612420826123df565b602082019050919050565b6000602082019050818103600083015261244481612408565b9050919050565b600061245682611b7e565b915061246183611b7e565b925082820190508082111561247957612478612210565b5b92915050565b7f5374616b696e6720706572696f64206e6f7420796574206f7665720000000000600082015250565b60006124b5601b83611a74565b91506124c08261247f565b602082019050919050565b600060208201905081810360008301526124e4816124a8565b9050919050565b7f5374616b6520616c726561647920636c61696d65640000000000000000000000600082015250565b6000612521601583611a74565b915061252c826124eb565b602082019050919050565b6000602082019050818103600083015261255081612514565b9050919050565b7f436f6e7472616374206c61636b732066756e647320666f722072657761726473600082015250565b600061258d602083611a74565b915061259882612557565b602082019050919050565b600060208201905081810360008301526125bc81612580565b9050919050565b60006060820190506125d86000830186611dbd565b6125e56020830185611c57565b6125f26040830184611c57565b94935050505056fea2646970667358221220054947939232f00ebb8f34c19d1086f30e4cc1a618855a98c16cf66256535c0564736f6c634300081c0033",
  "linkReferences": {},
  "deployedLinkReferences": {}
}