{
  "_format": "hh-sol-artifact-1",
  "contractName": "Sleep2EarnToken",
  "sourceName": "contracts/Lock.sol",
  "abi": [
    {
      "inputs": [
        {
          "internalType": "address",
          "name": "_feeCollector",
          "type": "address"
        }
      ],
      "stateMutability": "nonpayable",
      "type": "constructor"
    },
    {
      "inputs": [
        {
          "internalType": "address",
          "name": "spender",
          "type": "address"
        },
        {
          "internalType": "uint256",
          "name": "allowance",
          "type": "uint256"
        },
        {
          "internalType": "uint256",
          "name": "needed",
          "type": "uint256"
        }
      ],
      "name": "ERC20InsufficientAllowance",
      "type": "error"
    },
    {
      "inputs": [
        {
          "internalType": "address",
          "name": "sender",
          "type": "address"
        },
        {
          "internalType": "uint256",
          "name": "balance",
          "type": "uint256"
        },
        {
          "internalType": "uint256",
          "name": "needed",
          "type": "uint256"
        }
      ],
      "name": "ERC20InsufficientBalance",
      "type": "error"
    },
    {
      "inputs": [
        {
          "internalType": "address",
          "name": "approver",
          "type": "address"
        }
      ],
      "name": "ERC20InvalidApprover",
      "type": "error"
    },
    {
      "inputs": [
        {
          "internalType": "address",
          "name": "receiver",
          "type": "address"
        }
      ],
      "name": "ERC20InvalidReceiver",
      "type": "error"
    },
    {
      "inputs": [
        {
          "internalType": "address",
          "name": "sender",
          "type": "address"
        }
      ],
      "name": "ERC20InvalidSender",
      "type": "error"
    },
    {
      "inputs": [
        {
          "internalType": "address",
          "name": "spender",
          "type": "address"
        }
      ],
      "name": "ERC20InvalidSpender",
      "type": "error"
    },
    {
      "inputs": [
        {
          "internalType": "address",
          "name": "owner",
          "type": "address"
        }
      ],
      "name": "OwnableInvalidOwner",
      "type": "error"
    },
    {
      "inputs": [
        {
          "internalType": "address",
          "name": "account",
          "type": "address"
        }
      ],
      "name": "OwnableUnauthorizedAccount",
      "type": "error"
    },
    {
      "anonymous": false,
      "inputs": [
        {
          "indexed": true,
          "internalType": "address",
          "name": "owner",
          "type": "address"
        },
        {
          "indexed": true,
          "internalType": "address",
          "name": "spender",
          "type": "address"
        },
        {
          "indexed": false,
          "internalType": "uint256",
          "name": "value",
          "type": "uint256"
        }
      ],
      "name": "Approval",
      "type": "event"
    },
    {
      "anonymous": false,
      "inputs": [
        {
          "indexed": true,
          "internalType": "address",
          "name": "previousOwner",
          "type": "address"
        },
        {
          "indexed": true,
          "internalType": "address",
          "name": "newOwner",
          "type": "address"
        }
      ],
      "name": "OwnershipTransferred",
      "type": "event"
    },
    {
      "anonymous": false,
      "inputs": [
        {
          "indexed": true,
          "internalType": "address",
          "name": "user",
          "type": "address"
        },
        {
          "indexed": false,
          "internalType": "uint256",
          "name": "amount",
          "type": "uint256"
        }
      ],
      "name": "RewardTransferred",
      "type": "event"
    },
    {
      "anonymous": false,
      "inputs": [
        {
          "indexed": true,
          "internalType": "address",
          "name": "user",
          "type": "address"
        },
        {
          "indexed": false,
          "internalType": "uint256",
          "name": "reward",
          "type": "uint256"
        },
        {
          "indexed": false,
          "internalType": "uint256",
          "name": "amount",
          "type": "uint256"
        },
        {
          "indexed": false,
          "internalType": "uint256",
          "name": "claimedAt",
          "type": "uint256"
        }
      ],
      "name": "StakeClaimed",
      "type": "event"
    },
    {
      "anonymous": false,
      "inputs": [
        {
          "indexed": true,
          "internalType": "address",
          "name": "user",
          "type": "address"
        },
        {
          "indexed": false,
          "internalType": "uint256",
          "name": "amountBurned",
          "type": "uint256"
        },
        {
          "indexed": false,
          "internalType": "uint256",
          "name": "feePaid",
          "type": "uint256"
        }
      ],
      "name": "TokenRedeemed",
      "type": "event"
    },
    {
      "anonymous": false,
      "inputs": [
        {
          "indexed": true,
          "internalType": "address",
          "name": "user",
          "type": "address"
        },
        {
          "indexed": false,
          "internalType": "uint256",
          "name": "amount",
          "type": "uint256"
        },
        {
          "indexed": false,
          "internalType": "uint256",
          "name": "duration",
          "type": "uint256"
        }
      ],
      "name": "TokensStaked",
      "type": "event"
    },
    {
      "anonymous": false,
      "inputs": [
        {
          "indexed": true,
          "internalType": "address",
          "name": "user",
          "type": "address"
        },
        {
          "indexed": false,
          "internalType": "uint256",
          "name": "amount",
          "type": "uint256"
        },
        {
          "indexed": false,
          "internalType": "uint256",
          "name": "penalty",
          "type": "uint256"
        },
        {
          "indexed": false,
          "internalType": "uint256",
          "name": "unstakeTime",
          "type": "uint256"
        }
      ],
      "name": "TokensUnstaked",
      "type": "event"
    },
    {
      "anonymous": false,
      "inputs": [
        {
          "indexed": true,
          "internalType": "address",
          "name": "from",
          "type": "address"
        },
        {
          "indexed": true,
          "internalType": "address",
          "name": "to",
          "type": "address"
        },
        {
          "indexed": false,
          "internalType": "uint256",
          "name": "value",
          "type": "uint256"
        }
      ],
      "name": "Transfer",
      "type": "event"
    },
    {
      "inputs": [],
      "name": "INITIAL_SUPPLY",
      "outputs": [
        {
          "internalType": "uint256",
          "name": "",
          "type": "uint256"
        }
      ],
      "stateMutability": "view",
      "type": "function"
    },
    {
      "inputs": [
        {
          "internalType": "address",
          "name": "owner",
          "type": "address"
        },
        {
          "internalType": "address",
          "name": "spender",
          "type": "address"
        }
      ],
      "name": "allowance",
      "outputs": [
        {
          "internalType": "uint256",
          "name": "",
          "type": "uint256"
        }
      ],
      "stateMutability": "view",
      "type": "function"
    },
    {
      "inputs": [
        {
          "internalType": "address",
          "name": "spender",
          "type": "address"
        },
        {
          "internalType": "uint256",
          "name": "value",
          "type": "uint256"
        }
      ],
      "name": "approve",
      "outputs": [
        {
          "internalType": "bool",
          "name": "",
          "type": "bool"
        }
      ],
      "stateMutability": "nonpayable",
      "type": "function"
    },
    {
      "inputs": [
        {
          "internalType": "address",
          "name": "account",
          "type": "address"
        }
      ],
      "name": "balanceOf",
      "outputs": [
        {
          "internalType": "uint256",
          "name": "",
          "type": "uint256"
        }
      ],
      "stateMutability": "view",
      "type": "function"
    },
    {
      "inputs": [],
      "name": "baseRedemptionFee",
      "outputs": [
        {
          "internalType": "uint256",
          "name": "",
          "type": "uint256"
        }
      ],
      "stateMutability": "view",
      "type": "function"
    },
    {
      "inputs": [
        {
          "internalType": "address",
          "name": "",
          "type": "address"
        },
        {
          "internalType": "uint256",
          "name": "",
          "type": "uint256"
        }
      ],
      "name": "claimHistory",
      "outputs": [
        {
          "internalType": "uint256",
          "name": "amount",
          "type": "uint256"
        },
        {
          "internalType": "uint256",
          "name": "claimedAt",
          "type": "uint256"
        }
      ],
      "stateMutability": "view",
      "type": "function"
    },
    {
      "inputs": [
        {
          "internalType": "uint256",
          "name": "index",
          "type": "uint256"
        }
      ],
      "name": "claimStake",
      "outputs": [],
      "stateMutability": "nonpayable",
      "type": "function"
    },
    {
      "inputs": [],
      "name": "decimals",
      "outputs": [
        {
          "internalType": "uint8",
          "name": "",
          "type": "uint8"
        }
      ],
      "stateMutability": "view",
      "type": "function"
    },
    {
      "inputs": [],
      "name": "feeCollector",
      "outputs": [
        {
          "internalType": "address",
          "name": "",
          "type": "address"
        }
      ],
      "stateMutability": "view",
      "type": "function"
    },
    {
      "inputs": [
        {
          "internalType": "address",
          "name": "user",
          "type": "address"
        }
      ],
      "name": "getClaimHistory",
      "outputs": [
        {
          "components": [
            {
              "internalType": "uint256",
              "name": "amount",
              "type": "uint256"
            },
            {
              "internalType": "uint256",
              "name": "claimedAt",
              "type": "uint256"
            }
          ],
          "internalType": "struct Sleep2EarnToken.Claim[]",
          "name": "",
          "type": "tuple[]"
        }
      ],
      "stateMutability": "view",
      "type": "function"
    },
    {
      "inputs": [
        {
          "internalType": "address",
          "name": "user",
          "type": "address"
        }
      ],
      "name": "getStakingHistory",
      "outputs": [
        {
          "components": [
            {
              "internalType": "uint256",
              "name": "amount",
              "type": "uint256"
            },
            {
              "internalType": "uint256",
              "name": "startTime",
              "type": "uint256"
            },
            {
              "internalType": "uint256",
              "name": "duration",
              "type": "uint256"
            },
            {
              "internalType": "bool",
              "name": "claimed",
              "type": "bool"
            },
            {
              "internalType": "bool",
              "name": "unstaked",
              "type": "bool"
            },
            {
              "internalType": "uint256",
              "name": "unstakeTime",
              "type": "uint256"
            }
          ],
          "internalType": "struct Sleep2EarnToken.Stake[]",
          "name": "",
          "type": "tuple[]"
        }
      ],
      "stateMutability": "view",
      "type": "function"
    },
    {
      "inputs": [],
      "name": "minRedemptionFee",
      "outputs": [
        {
          "internalType": "uint256",
          "name": "",
          "type": "uint256"
        }
      ],
      "stateMutability": "view",
      "type": "function"
    },
    {
      "inputs": [
        {
          "internalType": "uint256",
          "name": "amount",
          "type": "uint256"
        }
      ],
      "name": "mint",
      "outputs": [],
      "stateMutability": "nonpayable",
      "type": "function"
    },
    {
      "inputs": [],
      "name": "name",
      "outputs": [
        {
          "internalType": "string",
          "name": "",
          "type": "string"
        }
      ],
      "stateMutability": "view",
      "type": "function"
    },
    {
      "inputs": [],
      "name": "owner",
      "outputs": [
        {
          "internalType": "address",
          "name": "",
          "type": "address"
        }
      ],
      "stateMutability": "view",
      "type": "function"
    },
    {
      "inputs": [
        {
          "internalType": "uint256",
          "name": "amount",
          "type": "uint256"
        }
      ],
      "name": "redeemTokens",
      "outputs": [],
      "stateMutability": "payable",
      "type": "function"
    },
    {
      "inputs": [],
      "name": "renounceOwnership",
      "outputs": [],
      "stateMutability": "nonpayable",
      "type": "function"
    },
    {
      "inputs": [
        {
          "internalType": "address",
          "name": "user",
          "type": "address"
        },
        {
          "internalType": "uint256",
          "name": "amount",
          "type": "uint256"
        }
      ],
      "name": "rewardUser",
      "outputs": [],
      "stateMutability": "nonpayable",
      "type": "function"
    },
    {
      "inputs": [
        {
          "internalType": "uint256",
          "name": "newFee",
          "type": "uint256"
        }
      ],
      "name": "setBaseRedemptionFee",
      "outputs": [],
      "stateMutability": "nonpayable",
      "type": "function"
    },
    {
      "inputs": [
        {
          "internalType": "address",
          "name": "newCollector",
          "type": "address"
        }
      ],
      "name": "setFeeCollector",
      "outputs": [],
      "stateMutability": "nonpayable",
      "type": "function"
    },
    {
      "inputs": [
        {
          "internalType": "uint256",
          "name": "newMinFee",
          "type": "uint256"
        }
      ],
      "name": "setMinRedemptionFee",
      "outputs": [],
      "stateMutability": "nonpayable",
      "type": "function"
    },
    {
      "inputs": [
        {
          "internalType": "uint256",
          "name": "amount",
          "type": "uint256"
        },
        {
          "internalType": "uint256",
          "name": "duration",
          "type": "uint256"
        }
      ],
      "name": "stakeTokens",
      "outputs": [],
      "stateMutability": "nonpayable",
      "type": "function"
    },
    {
      "inputs": [
        {
          "internalType": "address",
          "name": "",
          "type": "address"
        },
        {
          "internalType": "uint256",
          "name": "",
          "type": "uint256"
        }
      ],
      "name": "stakes",
      "outputs": [
        {
          "internalType": "uint256",
          "name": "amount",
          "type": "uint256"
        },
        {
          "internalType": "uint256",
          "name": "startTime",
          "type": "uint256"
        },
        {
          "internalType": "uint256",
          "name": "duration",
          "type": "uint256"
        },
        {
          "internalType": "bool",
          "name": "claimed",
          "type": "bool"
        },
        {
          "internalType": "bool",
          "name": "unstaked",
          "type": "bool"
        },
        {
          "internalType": "uint256",
          "name": "unstakeTime",
          "type": "uint256"
        }
      ],
      "stateMutability": "view",
      "type": "function"
    },
    {
      "inputs": [],
      "name": "symbol",
      "outputs": [
        {
          "internalType": "string",
          "name": "",
          "type": "string"
        }
      ],
      "stateMutability": "view",
      "type": "function"
    },
    {
      "inputs": [],
      "name": "totalSupply",
      "outputs": [
        {
          "internalType": "uint256",
          "name": "",
          "type": "uint256"
        }
      ],
      "stateMutability": "view",
      "type": "function"
    },
    {
      "inputs": [
        {
          "internalType": "address",
          "name": "to",
          "type": "address"
        },
        {
          "internalType": "uint256",
          "name": "value",
          "type": "uint256"
        }
      ],
      "name": "transfer",
      "outputs": [
        {
          "internalType": "bool",
          "name": "",
          "type": "bool"
        }
      ],
      "stateMutability": "nonpayable",
      "type": "function"
    },
    {
      "inputs": [
        {
          "internalType": "address",
          "name": "from",
          "type": "address"
        },
        {
          "internalType": "address",
          "name": "to",
          "type": "address"
        },
        {
          "internalType": "uint256",
          "name": "value",
          "type": "uint256"
        }
      ],
      "name": "transferFrom",
      "outputs": [
        {
          "internalType": "bool",
          "name": "",
          "type": "bool"
        }
      ],
      "stateMutability": "nonpayable",
      "type": "function"
    },
    {
      "inputs": [
        {
          "internalType": "address",
          "name": "newOwner",
          "type": "address"
        }
      ],
      "name": "transferOwnership",
      "outputs": [],
      "stateMutability": "nonpayable",
      "type": "function"
    },
    {
      "inputs": [
        {
          "internalType": "uint256",
          "name": "index",
          "type": "uint256"
        }
      ],
      "name": "unstakeTokens",
      "outputs": [],
      "stateMutability": "nonpayable",
      "type": "function"
    }
  ],
  "bytecode": "0x6080604052600a600755662386f26fc100006008553480156200002157600080fd5b5060405162003dd038038062003dd0833981810160405281019062000047919062000624565b336040518060400160405280601081526020017f536c656570324561726e20546f6b656e000000000000000000000000000000008152506040518060400160405280600581526020017f534c4545500000000000000000000000000000000000000000000000000000008152508160039081620000c59190620008d0565b508060049081620000d79190620008d0565b505050600073ffffffffffffffffffffffffffffffffffffffff168173ffffffffffffffffffffffffffffffffffffffff16036200014f5760006040517f1e4fbdf7000000000000000000000000000000000000000000000000000000008152600401620001469190620009c8565b60405180910390fd5b62000160816200023760201b60201c565b50600073ffffffffffffffffffffffffffffffffffffffff168173ffffffffffffffffffffffffffffffffffffffff1603620001d3576040517f08c379a0000000000000000000000000000000000000000000000000000000008152600401620001ca9062000a46565b60405180910390fd5b80600660006101000a81548173ffffffffffffffffffffffffffffffffffffffff021916908373ffffffffffffffffffffffffffffffffffffffff160217905550620002303369d3c21bcecceda1000000620002fd60201b60201c565b5062000b3d565b6000600560009054906101000a900473ffffffffffffffffffffffffffffffffffffffff16905081600560006101000a81548173ffffffffffffffffffffffffffffffffffffffff021916908373ffffffffffffffffffffffffffffffffffffffff1602179055508173ffffffffffffffffffffffffffffffffffffffff168173ffffffffffffffffffffffffffffffffffffffff167f8be0079c531659141344cd1fd0a4f28419497f9722a3daafe3b4186f6b6457e060405160405180910390a35050565b600073ffffffffffffffffffffffffffffffffffffffff168273ffffffffffffffffffffffffffffffffffffffff1603620003725760006040517fec442f05000000000000000000000000000000000000000000000000000000008152600401620003699190620009c8565b60405180910390fd5b62000386600083836200038a60201b60201c565b5050565b600073ffffffffffffffffffffffffffffffffffffffff168373ffffffffffffffffffffffffffffffffffffffff1603620003e0578060026000828254620003d3919062000a97565b92505081905550620004b6565b60008060008573ffffffffffffffffffffffffffffffffffffffff1673ffffffffffffffffffffffffffffffffffffffff168152602001908152602001600020549050818110156200046f578381836040517fe450d38c000000000000000000000000000000000000000000000000000000008152600401620004669392919062000ae3565b60405180910390fd5b8181036000808673ffffffffffffffffffffffffffffffffffffffff1673ffffffffffffffffffffffffffffffffffffffff16815260200190815260200160002081905550505b600073ffffffffffffffffffffffffffffffffffffffff168273ffffffffffffffffffffffffffffffffffffffff16036200050157806002600082825403925050819055506200054e565b806000808473ffffffffffffffffffffffffffffffffffffffff1673ffffffffffffffffffffffffffffffffffffffff168152602001908152602001600020600082825401925050819055505b8173ffffffffffffffffffffffffffffffffffffffff168373ffffffffffffffffffffffffffffffffffffffff167fddf252ad1be2c89b69c2b068fc378daa952ba7f163c4a11628f55a4df523b3ef83604051620005ad919062000b20565b60405180910390a3505050565b600080fd5b600073ffffffffffffffffffffffffffffffffffffffff82169050919050565b6000620005ec82620005bf565b9050919050565b620005fe81620005df565b81146200060a57600080fd5b50565b6000815190506200061e81620005f3565b92915050565b6000602082840312156200063d576200063c620005ba565b5b60006200064d848285016200060d565b91505092915050565b600081519050919050565b7f4e487b7100000000000000000000000000000000000000000000000000000000600052604160045260246000fd5b7f4e487b7100000000000000000000000000000000000000000000000000000000600052602260045260246000fd5b60006002820490506001821680620006d857607f821691505b602082108103620006ee57620006ed62000690565b5b50919050565b60008190508160005260206000209050919050565b60006020601f8301049050919050565b600082821b905092915050565b600060088302620007587fffffffffffffffffffffffffffffffffffffffffffffffffffffffffffffffff8262000719565b62000764868362000719565b95508019841693508086168417925050509392505050565b6000819050919050565b6000819050919050565b6000620007b1620007ab620007a5846200077c565b62000786565b6200077c565b9050919050565b6000819050919050565b620007cd8362000790565b620007e5620007dc82620007b8565b84845462000726565b825550505050565b600090565b620007fc620007ed565b62000809818484620007c2565b505050565b5b81811015620008315762000825600082620007f2565b6001810190506200080f565b5050565b601f82111562000880576200084a81620006f4565b620008558462000709565b8101602085101562000865578190505b6200087d620008748562000709565b8301826200080e565b50505b505050565b600082821c905092915050565b6000620008a56000198460080262000885565b1980831691505092915050565b6000620008c0838362000892565b9150826002028217905092915050565b620008db8262000656565b67ffffffffffffffff811115620008f757620008f662000661565b5b620009038254620006bf565b6200091082828562000835565b600060209050601f83116001811462000948576000841562000933578287015190505b6200093f8582620008b2565b865550620009af565b601f1984166200095886620006f4565b60005b8281101562000982578489015182556001820191506020850194506020810190506200095b565b86831015620009a257848901516200099e601f89168262000892565b8355505b6001600288020188555050505b505050505050565b620009c281620005df565b82525050565b6000602082019050620009df6000830184620009b7565b92915050565b600082825260208201905092915050565b7f496e76616c69642066656520636f6c6c6563746f720000000000000000000000600082015250565b600062000a2e601583620009e5565b915062000a3b82620009f6565b602082019050919050565b6000602082019050818103600083015262000a618162000a1f565b9050919050565b7f4e487b7100000000000000000000000000000000000000000000000000000000600052601160045260246000fd5b600062000aa4826200077c565b915062000ab1836200077c565b925082820190508082111562000acc5762000acb62000a68565b5b92915050565b62000add816200077c565b82525050565b600060608201905062000afa6000830186620009b7565b62000b09602083018562000ad2565b62000b18604083018462000ad2565b949350505050565b600060208201905062000b37600083018462000ad2565b92915050565b6132838062000b4d6000396000f3fe6080604052600436106101c25760003560e01c80638da5cb5b116100f7578063a9059cbb11610095578063de08989d11610064578063de08989d14610660578063e4e103dc1461069e578063f2fde38b146106c7578063f355ea28146106f0576101c2565b8063a9059cbb1461057e578063a95f4bc1146105bb578063c415b95c146105f8578063dd62ed3e14610623576101c2565b80639bbc1a27116100d15780639bbc1a27146104e5578063a0712d6814610510578063a42dce8014610539578063a6e158f814610562576101c2565b80638da5cb5b1461046457806395d89b411461048f57806396caeb85146104ba576101c2565b80633b7b618811610164578063608e4dd01161013e578063608e4dd0146103aa57806370a08231146103d3578063715018a6146104105780637d9ef0bf14610427576101c2565b80633b7b61881461031657806344c7d6ef1461033f578063584b62a114610368576101c2565b80632248aebc116101a05780632248aebc1461025a57806323b872dd146102835780632ff2e9dc146102c0578063313ce567146102eb576101c2565b806306fdde03146101c7578063095ea7b3146101f257806318160ddd1461022f575b600080fd5b3480156101d357600080fd5b506101dc610719565b6040516101e991906122e8565b60405180910390f35b3480156101fe57600080fd5b50610219600480360381019061021491906123a3565b6107ab565b60405161022691906123fe565b60405180910390f35b34801561023b57600080fd5b506102446107ce565b6040516102519190612428565b60405180910390f35b34801561026657600080fd5b50610281600480360381019061027c9190612443565b6107d8565b005b34801561028f57600080fd5b506102aa60048036038101906102a59190612470565b61082e565b6040516102b791906123fe565b60405180910390f35b3480156102cc57600080fd5b506102d561085d565b6040516102e29190612428565b60405180910390f35b3480156102f757600080fd5b5061030061086b565b60405161030d91906124df565b60405180910390f35b34801561032257600080fd5b5061033d600480360381019061033891906124fa565b610874565b005b34801561034b57600080fd5b5061036660048036038101906103619190612443565b610ac6565b005b34801561037457600080fd5b5061038f600480360381019061038a91906123a3565b610e63565b6040516103a19695949392919061253a565b60405180910390f35b3480156103b657600080fd5b506103d160048036038101906103cc9190612443565b610ed6565b005b3480156103df57600080fd5b506103fa60048036038101906103f5919061259b565b611238565b6040516104079190612428565b60405180910390f35b34801561041c57600080fd5b50610425611280565b005b34801561043357600080fd5b5061044e6004803603810190610449919061259b565b611294565b60405161045b9190612710565b60405180910390f35b34801561047057600080fd5b50610479611390565b6040516104869190612741565b60405180910390f35b34801561049b57600080fd5b506104a46113ba565b6040516104b191906122e8565b60405180910390f35b3480156104c657600080fd5b506104cf61144c565b6040516104dc9190612428565b60405180910390f35b3480156104f157600080fd5b506104fa611452565b6040516105079190612428565b60405180910390f35b34801561051c57600080fd5b5061053760048036038101906105329190612443565b611458565b005b34801561054557600080fd5b50610560600480360381019061055b919061259b565b61146d565b005b61057c60048036038101906105779190612443565b611528565b005b34801561058a57600080fd5b506105a560048036038101906105a091906123a3565b6116ee565b6040516105b291906123fe565b60405180910390f35b3480156105c757600080fd5b506105e260048036038101906105dd919061259b565b611711565b6040516105ef919061283a565b60405180910390f35b34801561060457600080fd5b5061060d6117c3565b60405161061a9190612741565b60405180910390f35b34801561062f57600080fd5b5061064a6004803603810190610645919061285c565b6117e9565b6040516106579190612428565b60405180910390f35b34801561066c57600080fd5b50610687600480360381019061068291906123a3565b611870565b60405161069592919061289c565b60405180910390f35b3480156106aa57600080fd5b506106c560048036038101906106c091906123a3565b6118b1565b005b3480156106d357600080fd5b506106ee60048036038101906106e9919061259b565b6119d0565b005b3480156106fc57600080fd5b5061071760048036038101906107129190612443565b611a56565b005b606060038054610728906128f4565b80601f0160208091040260200160405190810160405280929190818152602001828054610754906128f4565b80156107a15780601f10610776576101008083540402835291602001916107a1565b820191906000526020600020905b81548152906001019060200180831161078457829003601f168201915b5050505050905090565b6000806107b6611a68565b90506107c3818585611a70565b600191505092915050565b6000600254905090565b6107e0611a82565b6064811115610824576040517f08c379a000000000000000000000000000000000000000000000000000000000815260040161081b90612971565b60405180910390fd5b8060078190555050565b600080610839611a68565b9050610846858285611b09565b610851858585611b9e565b60019150509392505050565b69d3c21bcecceda100000081565b60006012905090565b600082116108b7576040517f08c379a00000000000000000000000000000000000000000000000000000000081526004016108ae906129dd565b60405180910390fd5b62278d008114806108ca57506276a70081145b806108d7575062ed4e0081145b610916576040517f08c379a000000000000000000000000000000000000000000000000000000000815260040161090d90612a49565b60405180910390fd5b8161092033611238565b1015610961576040517f08c379a000000000000000000000000000000000000000000000000000000000815260040161095890612ab5565b60405180910390fd5b61096c333084611b9e565b600960003373ffffffffffffffffffffffffffffffffffffffff1673ffffffffffffffffffffffffffffffffffffffff1681526020019081526020016000206040518060c001604052808481526020014281526020018381526020016000151581526020016000151581526020016000815250908060018154018082558091505060019003906000526020600020906005020160009091909190915060008201518160000155602082015181600101556040820151816002015560608201518160030160006101000a81548160ff02191690831515021790555060808201518160030160016101000a81548160ff02191690831515021790555060a0820151816004015550503373ffffffffffffffffffffffffffffffffffffffff167fdd2a19c3bdd089cbe77c04f5655f83de0504d6140d12c8667646f55d0557c4dc8383604051610aba92919061289c565b60405180910390a25050565b600960003373ffffffffffffffffffffffffffffffffffffffff1673ffffffffffffffffffffffffffffffffffffffff168152602001908152602001600020805490508110610b4a576040517f08c379a0000000000000000000000000000000000000000000000000000000008152600401610b4190612b21565b60405180910390fd5b6000600960003373ffffffffffffffffffffffffffffffffffffffff1673ffffffffffffffffffffffffffffffffffffffff1681526020019081526020016000208281548110610b9d57610b9c612b41565b5b906000526020600020906005020190506000816000015411610bf4576040517f08c379a0000000000000000000000000000000000000000000000000000000008152600401610beb90612bbc565b60405180910390fd5b80600201548160010154610c089190612c0b565b421015610c4a576040517f08c379a0000000000000000000000000000000000000000000000000000000008152600401610c4190612c8b565b60405180910390fd5b8060030160009054906101000a900460ff1615610c9c576040517f08c379a0000000000000000000000000000000000000000000000000000000008152600401610c9390612cf7565b60405180910390fd5b600062278d00826002015403610cb55760699050610ce1565b6276a700826002015403610ccc5760739050610ce0565b62ed4e00826002015403610cdf57608790505b5b5b60006064828460000154610cf59190612d17565b610cff9190612d88565b905080610d0b30611238565b1015610d4c576040517f08c379a0000000000000000000000000000000000000000000000000000000008152600401610d4390612e05565b60405180910390fd5b610d57303383611b9e565b60018360030160006101000a81548160ff021916908315150217905550600a60003373ffffffffffffffffffffffffffffffffffffffff1673ffffffffffffffffffffffffffffffffffffffff1681526020019081526020016000206040518060400160405280838152602001428152509080600181540180825580915050600190039060005260206000209060020201600090919091909150600082015181600001556020820151816001015550503373ffffffffffffffffffffffffffffffffffffffff167f81e7801ff166ee0fb78a4651529496769abc95c39110711ef866b4b4fd1737f882856000015442604051610e5593929190612e25565b60405180910390a250505050565b60096020528160005260406000208181548110610e7f57600080fd5b9060005260206000209060050201600091509150508060000154908060010154908060020154908060030160009054906101000a900460ff16908060030160019054906101000a900460ff16908060040154905086565b600960003373ffffffffffffffffffffffffffffffffffffffff1673ffffffffffffffffffffffffffffffffffffffff168152602001908152602001600020805490508110610f5a576040517f08c379a0000000000000000000000000000000000000000000000000000000008152600401610f5190612b21565b60405180910390fd5b6000600960003373ffffffffffffffffffffffffffffffffffffffff1673ffffffffffffffffffffffffffffffffffffffff1681526020019081526020016000208281548110610fad57610fac612b41565b5b906000526020600020906005020190506000816000015411611004576040517f08c379a0000000000000000000000000000000000000000000000000000000008152600401610ffb90612bbc565b60405180910390fd5b8060030160009054906101000a900460ff1615611056576040517f08c379a000000000000000000000000000000000000000000000000000000000815260040161104d90612ea8565b60405180910390fd5b8060030160019054906101000a900460ff16156110a8576040517f08c379a000000000000000000000000000000000000000000000000000000000815260040161109f90612f14565b60405180910390fd5b60008160010154426110ba9190612f34565b9050600062278d008210156110d257601e9050611101565b6276a7008210156110e65760149050611100565b62ed4e008210156110fa57600a90506110ff565b600090505b5b5b600060648285600001546111159190612d17565b61111f9190612d88565b905060008185600001546111339190612f34565b90508061113f30611238565b1015611180576040517f08c379a000000000000000000000000000000000000000000000000000000000815260040161117790612fb4565b60405180910390fd5b61118b303383611b9e565b6111b830600660009054906101000a900473ffffffffffffffffffffffffffffffffffffffff1684611b9e565b60018560030160016101000a81548160ff0219169083151502179055504285600401819055503373ffffffffffffffffffffffffffffffffffffffff167fba28b0c1ecdb762c56c12f6843b89de0bd02ac5a10b2f1e5f0e4f2bf23d76a1c82844260405161122893929190612e25565b60405180910390a2505050505050565b60008060008373ffffffffffffffffffffffffffffffffffffffff1673ffffffffffffffffffffffffffffffffffffffff168152602001908152602001600020549050919050565b611288611a82565b6112926000611c92565b565b6060600960008373ffffffffffffffffffffffffffffffffffffffff1673ffffffffffffffffffffffffffffffffffffffff168152602001908152602001600020805480602002602001604051908101604052809291908181526020016000905b8282101561138557838290600052602060002090600502016040518060c00160405290816000820154815260200160018201548152602001600282015481526020016003820160009054906101000a900460ff161515151581526020016003820160019054906101000a900460ff16151515158152602001600482015481525050815260200190600101906112f5565b505050509050919050565b6000600560009054906101000a900473ffffffffffffffffffffffffffffffffffffffff16905090565b6060600480546113c9906128f4565b80601f01602080910402602001604051908101604052809291908181526020018280546113f5906128f4565b80156114425780601f1061141757610100808354040283529160200191611442565b820191906000526020600020905b81548152906001019060200180831161142557829003601f168201915b5050505050905090565b60075481565b60085481565b611460611a82565b61146a3082611d58565b50565b611475611a82565b600073ffffffffffffffffffffffffffffffffffffffff168173ffffffffffffffffffffffffffffffffffffffff16036114e4576040517f08c379a00000000000000000000000000000000000000000000000000000000081526004016114db90613020565b60405180910390fd5b80600660006101000a81548173ffffffffffffffffffffffffffffffffffffffff021916908373ffffffffffffffffffffffffffffffffffffffff16021790555050565b6000811161156b576040517f08c379a00000000000000000000000000000000000000000000000000000000081526004016115629061308c565b60405180910390fd5b8061157533611238565b10156115b6576040517f08c379a00000000000000000000000000000000000000000000000000000000081526004016115ad906130f8565b60405180910390fd5b60006064600754836115c89190612d17565b6115d29190612d88565b90506008548110156115e45760085490505b80341015611627576040517f08c379a000000000000000000000000000000000000000000000000000000000815260040161161e9061318a565b60405180910390fd5b600660009054906101000a900473ffffffffffffffffffffffffffffffffffffffff1673ffffffffffffffffffffffffffffffffffffffff166108fc829081150290604051600060405180830381858888f1935050505015801561168f573d6000803e3d6000fd5b5061169a3383611dda565b3373ffffffffffffffffffffffffffffffffffffffff167fac100af3f918c30d71d2bfb00d975e36374d10738748c899376504e76c70bc7383836040516116e292919061289c565b60405180910390a25050565b6000806116f9611a68565b9050611706818585611b9e565b600191505092915050565b6060600a60008373ffffffffffffffffffffffffffffffffffffffff1673ffffffffffffffffffffffffffffffffffffffff168152602001908152602001600020805480602002602001604051908101604052809291908181526020016000905b828210156117b857838290600052602060002090600202016040518060400160405290816000820154815260200160018201548152505081526020019060010190611772565b505050509050919050565b600660009054906101000a900473ffffffffffffffffffffffffffffffffffffffff1681565b6000600160008473ffffffffffffffffffffffffffffffffffffffff1673ffffffffffffffffffffffffffffffffffffffff16815260200190815260200160002060008373ffffffffffffffffffffffffffffffffffffffff1673ffffffffffffffffffffffffffffffffffffffff16815260200190815260200160002054905092915050565b600a602052816000526040600020818154811061188c57600080fd5b9060005260206000209060020201600091509150508060000154908060010154905082565b6118b9611a82565b600073ffffffffffffffffffffffffffffffffffffffff168273ffffffffffffffffffffffffffffffffffffffff1603611928576040517f08c379a000000000000000000000000000000000000000000000000000000000815260040161191f90613020565b60405180910390fd5b8061193233611238565b1015611973576040517f08c379a000000000000000000000000000000000000000000000000000000000815260040161196a906131f6565b60405180910390fd5b61197e338383611b9e565b8173ffffffffffffffffffffffffffffffffffffffff167f9c944f9bf53dd7797190e4b01a2e438a604c4d8f33a684d386a7e93769296141826040516119c49190612428565b60405180910390a25050565b6119d8611a82565b600073ffffffffffffffffffffffffffffffffffffffff168173ffffffffffffffffffffffffffffffffffffffff1603611a4a5760006040517f1e4fbdf7000000000000000000000000000000000000000000000000000000008152600401611a419190612741565b60405180910390fd5b611a5381611c92565b50565b611a5e611a82565b8060088190555050565b600033905090565b611a7d8383836001611e5c565b505050565b611a8a611a68565b73ffffffffffffffffffffffffffffffffffffffff16611aa8611390565b73ffffffffffffffffffffffffffffffffffffffff1614611b0757611acb611a68565b6040517f118cdaa7000000000000000000000000000000000000000000000000000000008152600401611afe9190612741565b60405180910390fd5b565b6000611b1584846117e9565b90507fffffffffffffffffffffffffffffffffffffffffffffffffffffffffffffffff811015611b985781811015611b88578281836040517ffb8f41b2000000000000000000000000000000000000000000000000000000008152600401611b7f93929190613216565b60405180910390fd5b611b9784848484036000611e5c565b5b50505050565b600073ffffffffffffffffffffffffffffffffffffffff168373ffffffffffffffffffffffffffffffffffffffff1603611c105760006040517f96c6fd1e000000000000000000000000000000000000000000000000000000008152600401611c079190612741565b60405180910390fd5b600073ffffffffffffffffffffffffffffffffffffffff168273ffffffffffffffffffffffffffffffffffffffff1603611c825760006040517fec442f05000000000000000000000000000000000000000000000000000000008152600401611c799190612741565b60405180910390fd5b611c8d838383612033565b505050565b6000600560009054906101000a900473ffffffffffffffffffffffffffffffffffffffff16905081600560006101000a81548173ffffffffffffffffffffffffffffffffffffffff021916908373ffffffffffffffffffffffffffffffffffffffff1602179055508173ffffffffffffffffffffffffffffffffffffffff168173ffffffffffffffffffffffffffffffffffffffff167f8be0079c531659141344cd1fd0a4f28419497f9722a3daafe3b4186f6b6457e060405160405180910390a35050565b600073ffffffffffffffffffffffffffffffffffffffff168273ffffffffffffffffffffffffffffffffffffffff1603611dca5760006040517fec442f05000000000000000000000000000000000000000000000000000000008152600401611dc19190612741565b60405180910390fd5b611dd660008383612033565b5050565b600073ffffffffffffffffffffffffffffffffffffffff168273ffffffffffffffffffffffffffffffffffffffff1603611e4c5760006040517f96c6fd1e000000000000000000000000000000000000000000000000000000008152600401611e439190612741565b60405180910390fd5b611e5882600083612033565b5050565b600073ffffffffffffffffffffffffffffffffffffffff168473ffffffffffffffffffffffffffffffffffffffff1603611ece5760006040517fe602df05000000000000000000000000000000000000000000000000000000008152600401611ec59190612741565b60405180910390fd5b600073ffffffffffffffffffffffffffffffffffffffff168373ffffffffffffffffffffffffffffffffffffffff1603611f405760006040517f94280d62000000000000000000000000000000000000000000000000000000008152600401611f379190612741565b60405180910390fd5b81600160008673ffffffffffffffffffffffffffffffffffffffff1673ffffffffffffffffffffffffffffffffffffffff16815260200190815260200160002060008573ffffffffffffffffffffffffffffffffffffffff1673ffffffffffffffffffffffffffffffffffffffff16815260200190815260200160002081905550801561202d578273ffffffffffffffffffffffffffffffffffffffff168473ffffffffffffffffffffffffffffffffffffffff167f8c5be1e5ebec7d5bd14f71427d1e84f3dd0314c0f7b2291e5b200ac8c7c3b925846040516120249190612428565b60405180910390a35b50505050565b600073ffffffffffffffffffffffffffffffffffffffff168373ffffffffffffffffffffffffffffffffffffffff16036120855780600260008282546120799190612c0b565b92505081905550612158565b60008060008573ffffffffffffffffffffffffffffffffffffffff1673ffffffffffffffffffffffffffffffffffffffff16815260200190815260200160002054905081811015612111578381836040517fe450d38c00000000000000000000000000000000000000000000000000000000815260040161210893929190613216565b60405180910390fd5b8181036000808673ffffffffffffffffffffffffffffffffffffffff1673ffffffffffffffffffffffffffffffffffffffff16815260200190815260200160002081905550505b600073ffffffffffffffffffffffffffffffffffffffff168273ffffffffffffffffffffffffffffffffffffffff16036121a157806002600082825403925050819055506121ee565b806000808473ffffffffffffffffffffffffffffffffffffffff1673ffffffffffffffffffffffffffffffffffffffff168152602001908152602001600020600082825401925050819055505b8173ffffffffffffffffffffffffffffffffffffffff168373ffffffffffffffffffffffffffffffffffffffff167fddf252ad1be2c89b69c2b068fc378daa952ba7f163c4a11628f55a4df523b3ef8360405161224b9190612428565b60405180910390a3505050565b600081519050919050565b600082825260208201905092915050565b60005b83811015612292578082015181840152602081019050612277565b60008484015250505050565b6000601f19601f8301169050919050565b60006122ba82612258565b6122c48185612263565b93506122d4818560208601612274565b6122dd8161229e565b840191505092915050565b6000602082019050818103600083015261230281846122af565b905092915050565b600080fd5b600073ffffffffffffffffffffffffffffffffffffffff82169050919050565b600061233a8261230f565b9050919050565b61234a8161232f565b811461235557600080fd5b50565b60008135905061236781612341565b92915050565b6000819050919050565b6123808161236d565b811461238b57600080fd5b50565b60008135905061239d81612377565b92915050565b600080604083850312156123ba576123b961230a565b5b60006123c885828601612358565b92505060206123d98582860161238e565b9150509250929050565b60008115159050919050565b6123f8816123e3565b82525050565b600060208201905061241360008301846123ef565b92915050565b6124228161236d565b82525050565b600060208201905061243d6000830184612419565b92915050565b6000602082840312156124595761245861230a565b5b60006124678482850161238e565b91505092915050565b6000806000606084860312156124895761248861230a565b5b600061249786828701612358565b93505060206124a886828701612358565b92505060406124b98682870161238e565b9150509250925092565b600060ff82169050919050565b6124d9816124c3565b82525050565b60006020820190506124f460008301846124d0565b92915050565b600080604083850312156125115761251061230a565b5b600061251f8582860161238e565b92505060206125308582860161238e565b9150509250929050565b600060c08201905061254f6000830189612419565b61255c6020830188612419565b6125696040830187612419565b61257660608301866123ef565b61258360808301856123ef565b61259060a0830184612419565b979650505050505050565b6000602082840312156125b1576125b061230a565b5b60006125bf84828501612358565b91505092915050565b600081519050919050565b600082825260208201905092915050565b6000819050602082019050919050565b6125fd8161236d565b82525050565b61260c816123e3565b82525050565b60c08201600082015161262860008501826125f4565b50602082015161263b60208501826125f4565b50604082015161264e60408501826125f4565b5060608201516126616060850182612603565b5060808201516126746080850182612603565b5060a082015161268760a08501826125f4565b50505050565b60006126998383612612565b60c08301905092915050565b6000602082019050919050565b60006126bd826125c8565b6126c781856125d3565b93506126d2836125e4565b8060005b838110156127035781516126ea888261268d565b97506126f5836126a5565b9250506001810190506126d6565b5085935050505092915050565b6000602082019050818103600083015261272a81846126b2565b905092915050565b61273b8161232f565b82525050565b60006020820190506127566000830184612732565b92915050565b600081519050919050565b600082825260208201905092915050565b6000819050602082019050919050565b60408201600082015161279e60008501826125f4565b5060208201516127b160208501826125f4565b50505050565b60006127c38383612788565b60408301905092915050565b6000602082019050919050565b60006127e78261275c565b6127f18185612767565b93506127fc83612778565b8060005b8381101561282d57815161281488826127b7565b975061281f836127cf565b925050600181019050612800565b5085935050505092915050565b6000602082019050818103600083015261285481846127dc565b905092915050565b600080604083850312156128735761287261230a565b5b600061288185828601612358565b925050602061289285828601612358565b9150509250929050565b60006040820190506128b16000830185612419565b6128be6020830184612419565b9392505050565b7f4e487b7100000000000000000000000000000000000000000000000000000000600052602260045260246000fd5b6000600282049050600182168061290c57607f821691505b60208210810361291f5761291e6128c5565b5b50919050565b7f46656520746f6f20686967680000000000000000000000000000000000000000600082015250565b600061295b600c83612263565b915061296682612925565b602082019050919050565b6000602082019050818103600083015261298a8161294e565b9050919050565b7f416d6f756e74206d7573742062652067726561746572207468616e207a65726f600082015250565b60006129c7602083612263565b91506129d282612991565b602082019050919050565b600060208201905081810360008301526129f6816129ba565b9050919050565b7f496e76616c6964207374616b696e67206475726174696f6e0000000000000000600082015250565b6000612a33601883612263565b9150612a3e826129fd565b602082019050919050565b60006020820190508181036000830152612a6281612a26565b9050919050565b7f496e73756666696369656e742062616c616e6365000000000000000000000000600082015250565b6000612a9f601483612263565b9150612aaa82612a69565b602082019050919050565b60006020820190508181036000830152612ace81612a92565b9050919050565b7f496e76616c6964207374616b6520696e64657800000000000000000000000000600082015250565b6000612b0b601383612263565b9150612b1682612ad5565b602082019050919050565b60006020820190508181036000830152612b3a81612afe565b9050919050565b7f4e487b7100000000000000000000000000000000000000000000000000000000600052603260045260246000fd5b7f4e6f20616374697665207374616b650000000000000000000000000000000000600082015250565b6000612ba6600f83612263565b9150612bb182612b70565b602082019050919050565b60006020820190508181036000830152612bd581612b99565b9050919050565b7f4e487b7100000000000000000000000000000000000000000000000000000000600052601160045260246000fd5b6000612c168261236d565b9150612c218361236d565b9250828201905080821115612c3957612c38612bdc565b5b92915050565b7f5374616b696e6720706572696f64206e6f7420796574206f7665720000000000600082015250565b6000612c75601b83612263565b9150612c8082612c3f565b602082019050919050565b60006020820190508181036000830152612ca481612c68565b9050919050565b7f5374616b6520616c726561647920636c61696d65640000000000000000000000600082015250565b6000612ce1601583612263565b9150612cec82612cab565b602082019050919050565b60006020820190508181036000830152612d1081612cd4565b9050919050565b6000612d228261236d565b9150612d2d8361236d565b9250828202612d3b8161236d565b91508282048414831517612d5257612d51612bdc565b5b5092915050565b7f4e487b7100000000000000000000000000000000000000000000000000000000600052601260045260246000fd5b6000612d938261236d565b9150612d9e8361236d565b925082612dae57612dad612d59565b5b828204905092915050565b7f436f6e7472616374206c61636b732066756e647320666f722072657761726473600082015250565b6000612def602083612263565b9150612dfa82612db9565b602082019050919050565b60006020820190508181036000830152612e1e81612de2565b9050919050565b6000606082019050612e3a6000830186612419565b612e476020830185612419565b612e546040830184612419565b949350505050565b7f416c726561647920636c61696d65640000000000000000000000000000000000600082015250565b6000612e92600f83612263565b9150612e9d82612e5c565b602082019050919050565b60006020820190508181036000830152612ec181612e85565b9050919050565b7f416c726561647920756e7374616b656400000000000000000000000000000000600082015250565b6000612efe601083612263565b9150612f0982612ec8565b602082019050919050565b60006020820190508181036000830152612f2d81612ef1565b9050919050565b6000612f3f8261236d565b9150612f4a8361236d565b9250828203905081811115612f6257612f61612bdc565b5b92915050565b7f496e73756666696369656e7420636f6e74726163742062616c616e6365000000600082015250565b6000612f9e601d83612263565b9150612fa982612f68565b602082019050919050565b60006020820190508181036000830152612fcd81612f91565b9050919050565b7f496e76616c696420616464726573730000000000000000000000000000000000600082015250565b600061300a600f83612263565b915061301582612fd4565b602082019050919050565b6000602082019050818103600083015261303981612ffd565b9050919050565b7f496e76616c696420726564656d7074696f6e20616d6f756e7400000000000000600082015250565b6000613076601983612263565b915061308182613040565b602082019050919050565b600060208201905081810360008301526130a581613069565b9050919050565b7f496e73756666696369656e7420746f6b656e2062616c616e6365000000000000600082015250565b60006130e2601a83612263565b91506130ed826130ac565b602082019050919050565b60006020820190508181036000830152613111816130d5565b9050919050565b7f496e73756666696369656e74206e617469766520746f6b656e20666f7220666560008201527f6500000000000000000000000000000000000000000000000000000000000000602082015250565b6000613174602183612263565b915061317f82613118565b604082019050919050565b600060208201905081810360008301526131a381613167565b9050919050565b7f4e6f7420656e6f75676820746f6b656e73000000000000000000000000000000600082015250565b60006131e0601183612263565b91506131eb826131aa565b602082019050919050565b6000602082019050818103600083015261320f816131d3565b9050919050565b600060608201905061322b6000830186612732565b6132386020830185612419565b6132456040830184612419565b94935050505056fea2646970667358221220b6732db369649d72e5c79726c458a18fdcc259dd1a109acc31d49b5e605b9fa564736f6c63430008180033",
  "linkReferences": {},
  "deployedLinkReferences": {}
}